:1000000061C100008DC100008BC1000089C10000EA
:1000100087C1000085C1000083C1000081C10000CC
:100020007FC100007DC100007BC1000079C10000DC
:1000300077C1000075C1000073C1000071C10000EC
:100040006FC10000B2C400006BC1000069C10000B4
:1000500067C1000065C1000063C100005CC400000E
:100060005FC100005DC100005BC1000059C100001C
:1000700057C1000055C1000053C1000051C100002C
:100080004FC100004DC100004BC1000049C100003C
:1000900047C1000045C1000043C1000041C100004C
:1000A0003FC100003DC100003BC1000039C100005C
:1000B00037C1000035C1000033C1000031C100006C
:1000C0002FC100002DC100002BC1000029C100007C
:1000D00027C1000025C1000023C1000021C100008C
:1000E0001FC10000DE01E101D001D401D8011802D6
:1000F000E501E901EF01F301F701FD01010205024C
:1001000018020B020F02130230300030310030327F
:1001100000303300303400303500303600303700E6
:1001200030380030390031300031310031320031A7
:100130003300313400313500313600313700313889
:1001400000313900323000323100323200323300B7
:100150003234003235003236003237003238003265
:10016000390033300033310033320033330033345D
:10017000003335003336003337003338003339006D
:10018000343000343100343200343300343400343D
:100190003500343600343700343800343900353017
:1001A0000035310035320035330035340035350047
:1001B00035360035370035380035390000000A0B78
:1001C00002090C0D0E0807030401000000000000E6
:1001D000000000000000000000000000000000001F
:1001E00000000000000000001211100000000000DC
:1001F00000000000000000000000000000000000FF
:10020000000000002200250028002B002E003100F5
:10021000340002010000050108010B01000021006B
:10022000240027002A002D003000330001010000C7
:10023000040107010A010505050507050808080866
:10024000020202020A0A080804040404010101016E
:100250000101010103030303030303030407070769
:100260000C0C0C0C0C0C0C0C02020202060606060E
:10027000060606060B0B0B0B0B0B0B0B01021020DB
:1002800020080810204010204080020102010804CC
:100290000201010204081020408080402010080460
:1002A00002018004020180402010080402010804B9
:1002B00002010102040810204080010204081020FD
:1002C0004080340711241FBECFEFD1E2DEBFCDBF87
:1002D00000E00CBF12E0A0E0B2E0EEEBFEE000E0D8
:1002E0000BBF02C007900D92A631B107D9F722E0EB
:1002F000A6E1B2E001C01D92AB33B207E1F711E015
:10030000C2E6D1E000E005C021970109802FFE017F
:10031000C8D5C136D10780E00807B1F728D4CDC5CC
:100320006FCE90E0FC01E458FD4F2491FC01EA5CA3
:10033000FD4F8491882399F090E0880F991FFC016C
:10034000E45EFD4FA591B491FC01EE5FFD4F8591F8
:1003500094918FB7F894EC91E22BEC938FBF0895B2
:10036000362F90E0FC01E454FE4F4491FC01E45828
:10037000FD4F2491FC01EA5CFD4F9491992309F40F
:100380006BC0442309F454C050E0FA013197E231C4
:10039000F10508F04DC08827EE58FF4F8F4F81C5FB
:1003A000809180008F7707C0809180008F7D03C08F
:1003B00080918000877F809380003AC084B58F77DA
:1003C00002C084B58F7D84BD33C08091B0008F772B
:1003D00003C08091B0008F7D8093B00029C08091D0
:1003E00090008F7707C0809190008F7D03C080912F
:1003F0009000877F809390001BC08091A0008F7732
:1004000007C08091A0008F7D03C08091A000877FEE
:100410008093A0000DC0809120018F7707C080914C
:1004200020018F7D03C080912001877F8093200170
:10043000E92FF0E0EE0FFF1FEE5FFD4FA591B491A5
:100440009FB7F894311104C08C912095282302C0E5
:10045000EC912E2B2C939FBF08953FB7F894809179
:100460001F0290912002A0912102B091220226B594
:10047000A89B05C02F3F19F00196A11DB11D3FBFDC
:10048000BA2FA92F982F8827820F911DA11DB11D6A
:10049000BC01CD0142E0660F771F881F991F4A9566
:1004A000D1F708958F929F92AF92BF92CF92DF9231
:1004B000EF92FF926B017C01D0DF4B015C01C11414
:1004C000D104E104F104E9F0C8DFDC01CB018819B3
:1004D0009909AA09BB09883E9340A105B10578F3A3
:1004E00021E0C21AD108E108F10888EE880E83E005
:1004F000981EA11CB11CC114D104E104F10421F720
:10050000DECFFF90EF90DF90CF90BF90AF909F90A5
:100510008F900895CF92DF92EF92FF920F931F93E7
:10052000CF93DF936C017A018B01C0E0D0E0CE1550
:10053000DF0581F0D8016D918D01D601ED91FC911F
:100540000190F081E02DC6011995892B11F02196BB
:10055000EECF7E01C701DF91CF911F910F91FF90E8
:10056000EF90DF90CF900895CF93DF93EC0160E0A0
:100570008E81F6DE61E08E81F3DE60E08E81F0DE5A
:100580008BE891E00197F1F7DF91CF910895CF9239
:10059000DF92EF92FF920F931F93CF93DF936C0143
:1005A0007C0187E0E80EF11CC0E0D0E0062F10E0EF
:1005B000B8010C2E02C0759567950A94E2F7617038
:1005C000F70181917F01CCDE2196C430D10581F7FE
:1005D000C601DF91CF911F910F91FF90EF90DF90B7
:1005E000CF90C2CFCF92DF92EF92FF920F931F93E3
:1005F000CF93DF93EC01F62E642F8C81B1DE8D81D9
:100600008F3F11F060E0ACDE8F850F2D10E084FF8E
:1006100023C06E0187E0C80ED11CE12CF12CB8017B
:100620000E2C02C0759567950A94E2F76170F60189
:1006300081916F0195DEFFEFEF1AFF0A88E0E8165F
:10064000F10469F7CE01DF91CF911F910F91FF90D7
:10065000EF90DF90CF9088CFB80184E075956795D3
:100660008A95E1F7CE0193DF6F2DCE01DF91CF9117
:100670001F910F91FF90EF90DF90CF9088CF40E0D7
:10068000682F83E292E0AECFCF93DF93823028F0E1
:1006900090913202986090933202809336021092C9
:1006A000370280E48093380280E18093390280E54C
:1006B00080933A028091270234DE809128028F3F96
:1006C00009F02FDE809129022CDEC3E2D2E09E01E8
:1006D000235232408091320284FD03C084E090E0D6
:1006E00002C088E090E02196281739071CF48E811B
:1006F00018DEEDCF8BE39DE00197F1F760E080918C
:1007000027022EDE60E0809129022ADE80912802F5
:100710008F3F11F060E024DE8091320284FD1CC026
:1007200063E083E292E033DFCBE4D6E4CE010197CD
:10073000F1F763E083E292E02ADF2197F1F763E0CB
:1007400083E292E024DF83E592E00197F1F762E033
:1007500083E292E01CDF12C0806291DF8BE496E4BA
:100760000197F1F780913202806289DF83E592E0A0
:100770000197F1F780913202806281DF809132022D
:1007800080627DDF84E0809333028CE078DF81E05B
:1007900076DF8BE39FE10197F1F782E080933402EB
:1007A00086E0DF91CF916BCF41E01CDF81E090E0EC
:1007B0000895CF93DF93EC01FC01649141E083E263
:1007C00092E010DFFE013196649141E083E292E015
:1007D000DF91CF9107CF089580E090E00895CF9307
:1007E000C09101028FB1C13009F086C0803F09F489
:1007F0008DC062E370E080E090E054DE1092010270
:10080000C09300028EEF81BB000091B38FB19813AB
:1008100017C08DEF81BB000091B38FB1981310C04A
:100820008BEF81BB000091B38FB1981309C087EFA4
:1008300081BB000091B38FB1981302C010920002E7
:1008400080910002813009F054C08FB18E3E11F4C6
:1008500081E34AC08FB18E3D11F482E345C08FB170
:100860008E3B11F483E340C08FB18D3E11F484E3DD
:100870003BC08FB18D3D11F485E336C08FB18D3B08
:1008800011F486E331C08FB18B3E11F487E32CC0A5
:100890008FB18B3D11F488E327C08FB18B3B11F4EE
:1008A00089E322C08FB1873D11F480E31DC08FB171
:1008B0008E3711F481E418C08FB18D3711F482E4C2
:1008C00013C08FB18B3711F483E40EC08FB187371B
:1008D00011F484E409C08FB1873B11F485E404C0AE
:1008E0008FB1873E19F486E48093180281E08093EB
:1008F000190280EF81BB0AC0803F41F468EC70E0D0
:1009000080E090E0CFDD81E08093010280911902C8
:10091000CF910895CED21F920F920FB60F9211244D
:100920002F933F938F939F93AF93BF9380911B021D
:1009300090911C02A0911D02B0911E0230911A02EA
:1009400023E0230F2D3720F40196A11DB11D05C012
:1009500026E8230F0296A11DB11D20931A02809351
:100960001B0290931C02A0931D02B0931E02809163
:100970001F0290912002A0912102B09122020196C3
:10098000A11DB11D80931F0290932002A09321020C
:10099000B0932202BF91AF919F918F913F912F9180
:1009A0000F900FBE0F901F9018951F920F920FB6C9
:1009B0000F9211240BB60F922F933F934F935F9397
:1009C0006F937F938F939F93AF93BF93EF93FF9317
:1009D000809102028823D1F080910302815019F0A6
:1009E0008093030213C09BE390930302809104025F
:1009F000815019F08093040209C090930402809101
:100A00000502815009F487E1809305028091060276
:100A1000882369F1809109029091080220910702D0
:100A200041E0811140E031E0911130E0342359F090
:100A3000211109C0109207021092080210920902B7
:100A40001092060214C0215019F0209307020FC023
:100A50002BE320930702915019F09093080207C0EE
:100A600020930802815009F487E180930902E09104
:100A70003602E23010F4E15001C0E1E0F0E0ED5D5B
:100A8000FD4F84898B5F8068FADD8091050290E0DC
:100A90009C01220F331F820F931F885F9E4F89DEB8
:100AA0006AE383E292E080DE8091040290E09C01A0
:100AB000220F331F820F931F885F9E4F7ADE6AE3F7
:100AC00083E292E071DE8091030290E09C01220FAC
:100AD000331F820F931F885F9E4F6BDEE1E0809192
:100AE00036028111E0E0E195F0E0ED5DFD4F848993
:100AF0008B5F8068C4DD8091090290E09C01220F29
:100B0000331F820F931F885F9E4F53DE6AE383E299
:100B100092E04ADE8091080290E09C01220F331F90
:100B2000820F931F885F9E4F44DE6AE383E292E068
:100B30003BDE8091070290E09C01220F331F820F61
:100B4000931F885F9E4F35DEFF91EF91BF91AF916C
:100B50009F918F917F916F915F914F913F912F91D5
:100B60000F900BBE0F900FBE0F901F9018957894AA
:100B700084B5826084BD84B5816084BD85B58260A2
:100B800085BD85B5816085BD80916E008160809353
:100B90006E001092810080918100826080938100BC
:100BA00080918100816080938100809180008160CC
:100BB000809380008091B10084608093B100809127
:100BC000B00081608093B00080919100826080933A
:100BD00091008091910081608093910080919000BC
:100BE0008160809390008091A10082608093A10039
:100BF0008091A10081608093A1008091A00081601C
:100C00008093A000809121018260809321018091D6
:100C10002101816080932101809120018160809376
:100C2000200180917A00846080937A0080917A001C
:100C3000826080937A0080917A00816080937A004C
:100C400080917A00806880937A001092C100F894B5
:100C5000109280008DE08093810082E080936F008D
:100C600088E09DE390938900809388008FE080BBAB
:100C700080EF81BB82E008DD789485E152DB60E0A3
:100C800085E16EDB8AE0F82EC0E0D0E001E091E083
:100C900080910902811190E081E0209108022111E8
:100CA00080E08923A9F080910702811111C0109280
:100CB0000702109208021092090261E085E150DB00
:100CC00064E670E080E090E0EDDB60E085E148DB29
:100CD00086DD882309F45CC0E0913602E23010F42E
:100CE000E15001C0E1E0F0E0ED5DFD4F84898F5FF0
:100CF0008068C5DC109219026091180283E292E0CC
:100D000053DD6DDD811106C0109219028091180229
:100D10008134F1F464DD8823E9F310921902E09044
:100D20001802E09216025BDD8823E9F310921902A3
:100D3000109118021534B9F31093170250DD811188
:100D40004BC010921902809118028534B9F744C043
:100D500046DD811123C0109219028091180282345D
:100D6000E9F03DDD811107C010921902809118024F
:100D7000833409F05BC080910602882309F461C0C6
:100D800010920602009307021092080210920902C4
:100D9000209709F47CCF0E94000079CF20DD8823C2
:100DA000E9F310921902E0901802E092160217DDA2
:100DB0008823E9F310921902109118021534B9F33F
:100DC000109317020CDD81111CC010921902809142
:100DD00018028534B9F715C02E2DEE0C330B2053B5
:100DE0003109F29EA001F39E500D1124812F110FA5
:100DF000990BC097840F951F8093080210920602EA
:100E0000C7CF2E2DEE0C330B20533109F29EA001DB
:100E1000F39E500D1124812F110F990BC097840F51
:100E2000951F8093040210920202B2CFD8DC811188
:100E30000BC01092190280911802843409F0A8CFD7
:100E400003C000930602A4CF80910202882349F0D8
:100E50001092020200930302109204021092050203
:100E600097CF0093020294CFE3E2F2E01382128262
:100E70008EE092E09183808385E0848386E08583A1
:100E800087E0868388E0878389E080878AE081879E
:100E90008BE082871386148615861686178681E076
:100EA000F3CBEE0FFF1F881F8BBF0790F691E02D4D
:0E0EB000199481E090E0F89400C0F894FFCF10
:100EBE000101013B02000102000000000000D4030A
:060ECE008A02EC03EB03B5
:00000001FF
